:020000001028C6
:10000800FE00030EFA000408FB000A08FC00831235
:1000180003137F08FD00A9291128831320308400C9
:1000280042303F228301D3283930F4007408F000AD
:10003800831203132A08F5007508F100060EF6006E
:10004800F60C760C01390322F700770883120313A4
:10005800AA003A30F4007408F0002B08F50075087F
:10006800F100060D060D01390322F6007608831209
:100078000313AB003B30F4007408F0002C08F500C3
:100088007508F100050EF600F60C760C013903220E
:10009800F700770883120313AC003C30F4007408AF
:1000A800F0002D08F5007508F100050D050D013962
:1000B8000322F600760883120313AD003D30F400E6
:1000C8007408F0002E08F5007508F10005080139DC
:1000D8000322F600760883120313AE003E30F400C4
:1000E8007408F0002F08F5007508F100050C0139B7
:1000F8000322F600760883120313AF004E03031D94
:100108000800B7013F30F4007408F0003008F5002B
:100118007508F100050EF600760C01390322F70088
:10012800770883120313B0003008F4007408B7008E
:100138004030F4007408F0003108F5007508F1004B
:10014800060801390322F600760883120313B1006A
:100158003108F4007407F5007508B7044130F4005D
:100168007408F0003208F5007508F100060CF60076
:10017800F60C760C01390322F70077088312031373
:10018800B2003208F40001300310F40DFF3E031DE5
:10019800C8280310740DF5007508B7040800831209
:1001A8000313CB01CC01CD01CA01D4211722662942
:1001B800861206124E08031DE22835228312031305
:1001C80037084B06031966293708031966292822B8
:1001D8008312031337084B020318F528CD01CD0A03
:1001E800F9280230C9004908CD00CC01CC0A66299B
:1001F8002A03031D0B292A03031D0B292A03031DA8
:100208000B29CC0186120612003078216629831248
:1002180003134B083706031D1429B501B6016029DD
:1002280002304D06031D2529050D050D01392A3E0D
:1002380084008313000803192529CC01CB01CB0ABC
:1002480066294D03031D3629050801392A3E840015
:100258008313000803193629CC010330C900490863
:10026800CB006629023061294D03031D3E29861201
:1002780006164029861606124D03031D4A29ED214C
:1002880083120313C9004908CB076629ED2183129D
:100298000313C9004908CB026629861206121330D7
:1002A8003602893003193502031C60290030782191
:1002B80035228312031365290330C9004908CC008D
:1002C8006629CC01831203134C08C9004908CF00E2
:1002D8004C088400043004020318652902308A009F
:1002E800473004078200662983120313C4004408B8
:1002F8000139C200C20EC20D05084206DF394206A6
:1003080085004408C20001300310C20CFF3E031DE3
:10031800882901304205C30006084306FE39430612
:1003280086004408C20002300310C20CFF3E031DC1
:10033800982942080139C300C30DC30DC30D06082F
:100348004306F7394306860008000C1CC62901300D
:10035800B3070318B40A0030B40703304F06031D6F
:10036800BB290130B5070318B60A0030B6070330B9
:100378003305F80000303405F90078087904031DC6
:10038800C6291820831203138C017D08FF007C08FE
:100398008A007B0884007A0E8300FE0E7E0E090018
:1003A800FF30831603138500FF3086000511851181
:1003B80005123522831603130617861705178312AD
:1003C8000313061286128316031385170514851462
:1003D800080083120313C301380303192F080319F4
:1003E800FD293808031DFD292F03031DFD29C3011D
:1003F800C30A2F08C2004208B80043080800F300E7
:100408007008840003108313800D7308F2007008CD
:1004180084007208800470088400001C152A0130CA
:1004280008007108080083120313B301B401900196
:1004380030309004FD308F008E308E000C10101478
:10044800831603130C14080083120313CE018316BA
:1004580003138512061086118312031337087821B7
:10046800080083120313CE01CE0A831603138516E0
:1004780006148615080064008001840A040603191E
:0E04880000340406402ADC28FC2838295129BB
:00000001FF
