:020000001028C6
:10000800FE00030EFA000408FB000A08FC00831235
:1000180003137F08FD0083291128831320308400EF
:100028004130FF218301D3283830F4007408F000F0
:10003800831203132A08F5007508F100060EF6006E
:10004800F60C760C0139C721F700770883120313E1
:10005800AA003930F4007408F0002B08F500750880
:10006800F100060D060D0139C721F6007608831246
:100078000313AB003A30F4007408F0002C08F500C4
:100088007508F100050EF600F60C760C0139C7214B
:10009800F700770883120313AC003B30F4007408B0
:1000A800F0002D08F5007508F100050D050D013962
:1000B800C721F600760883120313AD003C30F40024
:1000C8007408F0002E08F5007508F10005080139DC
:1000D800C721F600760883120313AE003D30F40002
:1000E8007408F0002F08F5007508F100050C0139B7
:1000F800C721F600760883120313AF004D03031DD2
:100108000800B7013E30F4007408F0003008F5002C
:100118007508F100050EF600760C0139C721F700C5
:10012800770883120313B0003008F4007408B7008E
:100138003F30F4007408F0003108F5007508F1004C
:1001480006080139C721F600760883120313B100A7
:100158003108F4007407F5007508B7044030F4005E
:100168007408F0003208F5007508F100060CF60076
:10017800F60C760C0139C721F700770883120313B0
:10018800B2003208F40001300310F40DFF3E031DE5
:10019800C8280310740DF5007508B7040800831209
:1001A8000313CB01CC01CA01C901AE21DB214029CF
:1001B800861206124A080319E528EC218312031354
:1001C800CA0137084B060319402937080319402983
:1001D800F6218312031337085221831203133708B9
:1001E8004B020318FA28CA01CA0A27290230C80094
:1001F8004808CA0027292A03031D11292A03031DB9
:1002080011292A03031D1129CC01CC0AC901C90AE5
:1002180086120612003052214029831203134B081C
:100228003706031D1C29B501B601861206123A29A4
:1002380003303B29C9014A03031D252986120616E6
:1002480027298616061202303B2986120612133019
:100258003602893003193502031C3A29003052212D
:10026800EC2183120313CC01CC0A40290530C800C5
:100278004808CC004029CC01831203134C08C8005D
:100288004808CE004C0884000630040203183F29B1
:1002980002308A00073004078200402983120313C2
:1002A800C30043080139C100C10EC10D050841064C
:1002B800DF39410685004308C10001300310C10C35
:1002C800FF3E031D622901304105C20006084206AF
:1002D800FE39420686004308C10002300310C10CF3
:1002E800FF3E031D722941080139C200C20DC20D2B
:1002F800C20D06084206F7394206860008000C1CA3
:10030800A0290130B3070318B40A0030B407053038
:100318004E06031D95290130B5070318B60A0030AB
:10032800B60703303305F80000303405F9007808C3
:100338007904031DA0291820831203138C017D085A
:10034800FF007C088A007B0884007A0E8300FE0E7A
:100358007E0E0900FF30831603138500FF308600E8
:10036800051185110512EC2183160313061786174C
:1003780005178312031306128612831603138517B3
:10038800051485140800F300700884000310831313
:10039800800D7308F20070088400720880047008E9
:1003A8008400001CD9290130080071080800831254
:1003B8000313B301B401900130309004FD308F0075
:1003C8008E308E000C101014831603130C140800C2
:1003D80083120313CD01CD0A831603138516061461
:1003E8008615080083120313CD01831603138512A3
:1003F80006108611080064008001840A04060319A7
:1004080000340406002A4029DC28FF281E293F2939
:02041800292990
:00000001FF
