:020000001028C6
:10000800FE00030EF8000408F9000A08FA0083123B
:1000180003137F08FB001A281128FC01FD01831334
:10002800203084003D302721830119290C1CCE285B
:100038000130FC070318FD0A0030FD0703307C057A
:10004800F40000307D05F50074087504031DCE2802
:100058003430F4007408F0002A08F5007508F1003F
:10006800050EF600760C0139F620F70077088312A2
:100078000313AA003530F4007408F0002B08F500CB
:100088007508F100050EF600760C0139F620F70028
:10009800770883120313AB003630F4007408F000BD
:1000A8002C08F5007508F100050EF600760C0139EC
:1000B800F620F700770883120313AC003730F400FA
:1000C8007408F0002D08F5007508F100050EF6001B
:1000D800760C0139F620F700770883120313AD0078
:1000E8003830F4007408F0002E08F5007508F100A7
:1000F800050EF600760C0139F620F7007708831212
:100108000313AE003930F4007408F0002F08F5002E
:100118007508F100050EF600760C0139F620F70097
:10012800770883120313AF003A30F4007408F00024
:100138003008F5007508F100050EF600760C013957
:10014800F620F700770883120313B0003B30F40061
:100158007408F0003108F5007508F100050EF60086
:10016800760C0139F620F700770883120313B100E3
:100178003C30F4007408F0003208F5007508F1000E
:10018800050EF600760C0139F620F7007708831281
:100198000313B2008C017B08FF007A088A007908F3
:1001A8008400780E8300FE0E7E0E0900FF30831651
:1001B80003138500FF308600051185110512851689
:1001C80006148615061786170517831203130612D9
:1001D8008612831603130617861705178517051445
:1001E80085140800F3007008840003108313800D41
:1001F8007308F200700884007208800483120313E5
:10020800201C082901300800710808008312031314
:10021800900130309004FD308F008E308E000C102D
:100228001014831603130C140800DA200A21831211
:100238000313B3013308003A03191E29013A0319BD
:100248001E291D291E2964008001840A0406031939
:0602580000340406282911
:00000001FF
