:020000001028C6
:10000800FE00030EFA000408FB000A08FC00831235
:1000180003137F08FD009D291128831320308400D5
:10002800423033228301D3283930F4007408F000B9
:10003800831203132A08F5007508F100060EF6006E
:10004800F60C760C0139F721F700770883120313B1
:10005800AA003A30F4007408F0002B08F50075087F
:10006800F100060D060D0139F721F6007608831216
:100078000313AB003B30F4007408F0002C08F500C3
:100088007508F100050EF600F60C760C0139F7211B
:10009800F700770883120313AC003C30F4007408AF
:1000A800F0002D08F5007508F100050D050D013962
:1000B800F721F600760883120313AD003D30F400F3
:1000C8007408F0002E08F5007508F10005080139DC
:1000D800F721F600760883120313AE003E30F400D1
:1000E8007408F0002F08F5007508F100050C0139B7
:1000F800F721F600760883120313AF004E03031DA1
:100108000800B7013F30F4007408F0003008F5002B
:100118007508F100050EF600760C0139F721F70095
:10012800770883120313B0003008F4007408B7008E
:100138004030F4007408F0003108F5007508F1004B
:1001480006080139F721F600760883120313B10077
:100158003108F4007407F5007508B7044130F4005D
:100168007408F0003208F5007508F100060CF60076
:10017800F60C760C0139F721F70077088312031380
:10018800B2003208F40001300310F40DFF3E031DE5
:10019800C8280310740DF5007508B7040800831209
:1001A8000313CB01CC01CD01CA01C8210B225A2966
:1001B800861206124E08031DE22829228312031311
:1001C80037084B0603195A29370803195A291C22DC
:1001D8008312031337084B020318F528CD01CD0A03
:1001E80042290230C9004908CD0042292A030319CF
:1001F80002292B03031D2C03031D0829CC01861299
:10020800061200306C215A29831203134B08370653
:10021800031D1129B501B601542902304D06031DED
:100228001C292D0803191C29CC01CB01CB0A5A29FA
:100238004D03031D28292E0803192829CC01033052
:10024800C9004908CB005A29023055294D03031D1E
:100258003029861206163229861606124D03031D0A
:100268003C29E12183120313C9004908CB0742291D
:10027800E12183120313C9004908CB02CC01CC0A3F
:100288005A298612061213303602893003193502AC
:10029800031C542900306C21292283120313592985
:1002A8000330C9004908CC005A29CC018312031332
:1002B8004C08C9004908CF004C08840004300402E7
:1002C8000318592902308A003B30040782005A2952
:1002D80083120313C40044080139C200C20EC20DC0
:1002E80005084206DF39420685004408C20001308D
:1002F8000310C20CFF3E031D7C2901304205C300D8
:1003080006084306FE39430686004408C200023048
:100318000310C20CFF3E031D8C2942080139C3009B
:10032800C30DC30DC30D06084306F73943068600FF
:1003380008000C1CBA290130B3070318B40A0030AE
:10034800B40703304F06031DAF290130B507031862
:10035800B60A0030B60703303305F800003034051C
:10036800F90078087904031DBA29182083120313A9
:100378008C017D08FF007C088A007B0884007A0EC7
:100388008300FE0E7E0E0900FF30831603138500DE
:10039800FF308600051185110512292283160313E3
:1003A800061786170517831203130612861283167B
:1003B8000313851705148514080083120313C3015A
:1003C800380303192F080319F1293808031DF129E7
:1003D8002F03031DF129C301C30A2F08C2004208D5
:1003E800B80043080800F300700884000310831362
:1003F800800D7308F2007008840072088004700889
:100408008400001C092A01300800710808008312C2
:100418000313B301B401900130309004FD308F0014
:100428008E308E000C101014831603130C14080061
:1004380083120313CE018316031385120610861147
:100448008312031337086C21080083120313CE01AB
:10045800CE0A831603138516061486150800640051
:100468008001840A0406031900340406342ADC28AF
:06047800FA282A2945299B
:00000001FF
